:060000000A128A113A2FDA
:100E740083134030FD000730FE005F30FF00203058
:100E840084000A128A1150270A128A1183010A1255
:100E94008A117F2F7E088A007F0882000A128A1135
:100EA4004C270A128A118000840A04087D0603195B
:100EB4000034FF0A0319FE0A502F013400340234AF
:100EC4000034043400340834003410340034203442
:100ED40000344034003480340034803400344034EE
:100EE4000034203400341034003408340034043422
:100EF40000340234003401340034831603138701B0
:100F04008601F301F4017408803AFF0080307F0207
:100F1400031D8E2F08307302031C912F922F942FE0
:100F2400832F832F7308F0007007203E84008313FF
:100F340000088312031387000230F2004530F100E9
:100F4400A930F000F00BA42FF10BA42FF20BA42F67
:100F5400AB2FF501F6017608803AFF0080307F025E
:100F6400031DB62F08307502031CB92FBA2FBC2FEE
:100F7400E72FE72F7508F0007007303E84008313D5
:100F840000088312031386000430F2002C30F100B1
:100F9400AD30F000F00BCC2FF10BCC2FF20BCC2F9B
:100FA400D32F0130F5070318F60A0030F607760848
:100FB400803AFF0080307F02031DE22F0830750263
:100FC400031CE52FE62FBC2FE72F0130F30703188E
:100FD400F40A0030F4077408803AFF0080307F027E
:100FE400031DF62F08307302031CF92FFA2F942FD8
:0C0FF400832F832F832F0A128A110028FC
:02400E003AFF77
:00000001FF
